:020000021000EC
:1020000068770020D9EE0100BDEE0100BDEE0100B1
:1020100000000000000000000000000000000000C0
:10202000000000000000000000000000656D0100DD
:102030000000000000000000416E0100856E0100FC
:10204000BDEE0100BDEE0100BDEE010021D3010097
:1020500085CF0100BDEE010055220100BDEE01005B
:10206000F9220100C5D60100D5D60100E5D6010050
:10207000F5D6010005D7010015D701008DEE01004E
:102080009DEE0100ADEE0100795A0100895A010070
:10209000995A01000000000000000000BDEE0100A0
:1020A000BDEE0100BDEE0100BDEE0100BDEE010080
:1020B0000000000010B5064C2378002B07D1054B1B
:1020C000002B02D0044800E000BF0123237010BDA4
:1020D000E00300200000000088BA0200084B10B5A1
:1020E000002B03D00749084800E000BF07480368F9
:1020F000002B00D110BD064B002BFBD09847F9E711
:1021000000000000E403002088BA020088BA020040
:102110000000000028200022034B044918709A8117
:1021200099605960DA81704700420020FC0300206A
:1021300010B5014B984710BD1521010007B50022CD
:102140006B460848DA7107334360FA2101232832CD
:102150000270233A8281044AC3818900034B826062
:10216000984707BD00420020FC030020C140010049
:1021700010B5054C054B200098470F236078184098
:10218000A3780002184310BDFC0300203D2101008C
:10219000F7B5244B9847244B09241978012900D11D
:1021A000043400221300214DA2422EDB9A22FF327A
:1021B000904231DD1E4A904203DD00292ED00129D4
:1021C0002ED01A4E5A1C9B009D591A4F0092DC5972
:1021D000401B194B9847009B01909B009859009316
:1021E000401B154B9847154B011C01989847009BC5
:1021F000051C211CD859124B9847124B011C281C56
:102200009847211C104B9847FEBD96007659B04266
:1022100000DD13000132C7E70020F5E70B48F3E7C4
:102220000B48F1E771210100010400203400002077
:10223000650E000000000020F169020059600200F4
:102240007966020039640200355D0200295CE740CE
:102250000000704170B5204B98470F221F4B20495A
:102260001B8C204C13409B0058581F4D0378134083
:102270001E4A137001781E4A090164186918137800
:1022800064884988DBB2611A41611C0001210C405D
:102290000CD0102311704374037C0B4203D04368AD
:1022A000002B00D09847134B984770BD02210B427A
:1022B00006D01170037C44740B42F4D08368EFE7BE
:1022C00004210B42EFD0062311704374037C0B42B0
:1022D000E9D0C368E4E7C04685CE0100004800416C
:1022E0000404002010420020200400203F48004148
:1022F0004E480041B9CE010070B50A4A0A4C9369B4
:10230000A16825690B43A360084B9361002D04D19C
:10231000E268A3689343A36070BD28686B68984720
:10232000AD68F3E70004004268000020FFFF0F0FD4
:102330000223054A116A0B4313620123034A1370F7
:1023400011781942FCD1704700040040000400429B
:1023500007230168CA691A42FCD17047F8B50568BD
:1023600004002A68468B838BF61A838BB6B2013B36
:102370009BB28383C37A12010AD5002B0DD0838BC5
:10238000012B0AD180236A68DB0213436B6004E0EF
:10239000002B02D0838B002BF4D0A38B0A4F002B91
:1023A00009D1A37A002B06D02000B847C0236A6861
:1023B0009B0213436B602000B847236A28359E199F
:1023C0002B78DBB23370F8BD5123010070B506687D
:1023D0000400738B5B0703D51E230634E37770BDBF
:1023E000458B838B2836ED1A838BADB2013B9BB2B4
:1023F0008383044B9847236A5D192B78DBB23370D3
:10240000EDE7C0465123010070B54B7A05000E0080
:102410000468002B02D0897A0F4B984763680F4AF3
:1024200013400022636073682B627388AB836B1D5B
:10243000DA7705230635EB77023BA375727A33888A
:10244000317A5B0092031343002902D080221202EA
:1024500013430020636270BDFD590100FFFFFBFFC5
:102460000122F8B54B68046803624B880600838339
:10247000431DDA77831D0432DA7727684B7A3F01F0
:102480000D00FF0F002B02D0897A204B9847002FB8
:102490002FD06B88012B2CD180236268DB02134381
:1024A0006360287A002828D02B886A7A5B00920320
:1024B000134380221202134363623000144B984787
:1024C0006368144A13406360002811D13000124B36
:1024D000984700280CD10323A3752A887533120A64
:1024E00013430122697A5B0089030A431343636241
:1024F000F8BD6368074A1340D2E70323A3752B880E
:102500006A7A5B00920313430122EFE7FD59010051
:10251000D5590100FFFFFBFFA9590100931C9B0047
:10252000C318596001239340017E0B43DBB203764D
:102530007047000010B5828B03000520002A05D1EA
:1025400001329A72DA721800014B984710BDC046EA
:102550006124010010B5828B03000520002A05D1FB
:1025600001329A72DA721800014B984710BDC046CA
:1025700009240100F8B55E4B8000C4582568A61DEB
:102580002B68627E277E1B011740628BDB0F002ABF
:102590002ED1A28B002A2BD001232A7E1A4206D0EC
:1025A00002222B766B8B134010D04123F377A38B41
:1025B0009BB26383F37F052B3CD1631DDB7F20003F
:1025C000002B00D08AE04B4B984733E06A8B5207D0
:1025D000EDD51822F277A383A37A002BE7D0464BE0
:1025E00020009847C0236A689B0213436B60DEE7B4
:1025F000628B002A5FD0A28B002A5CD1F27F052A71
:1026000059D1621DD27FD2B2002A54D103232B7537
:102610006283F277A37A002B4AD0374B2000984789
:10262000C0236A689B0213436B60FB0702D5E36813
:1026300020009847638B002B1BD0A38B002B18D155
:10264000F37F052B15D1631DDA7F012A11D1297E75
:102650000132114200D02A7603222A7500226283B9
:10266000F277BA073CD5DA7F012A39D123692000F5
:102670009847F37F052B1AD0F37F002B17D0032345
:102680002B7500236383A383F37F412B0AD0A37AA6
:10269000002B07D0184B20009847E0236A68DB0224
:1026A00013436B607B0702D5636920009847F8BD30
:1026B00001232B76B9E7628B002ABBD0A28B002ABC
:1026C000B8D06A8B920600D577E7002B03D0A38B96
:1026D000012B00D171E74123F377ABE7074B73E799
:1026E000FA07C6D5DB7F002BC3D1E368BFE7C0463E
:1026F00080560020CD230100512301005D230100FD
:1027000070B5A6B09022002102A8114BFA26984776
:102710000124B6000F4D104B2900200098473000CF
:102720000E4B98476A462B00073202A920000C4D39
:10273000A8470C4B1B68002B02D002A80A4B9847F5
:102740000A4B1B68002BE5D002A8094B9847E1E72C
:10275000472C0200D056002055310100AD85010004
:1027600041330100940B002041560100E004002099
:10277000FD3D0100F7B5214C0D00A047071CE88B7B
:10278000A047DC211E4C061C8905381CA047E4210B
:1027900001908905301CA0471A4B011C01989847ED
:1027A000E22101908905381CA047EA21071C890510
:1027B000301CA047134B011C381C9847124E071CB5
:1027C0002023E85EB047011C381CA047071C1F20CF
:1027D000EB1C1856B0478321C905A0470199061C78
:1027E000081CA047011C301CA047084B011C381CCA
:1027F00098470749A863074B9847FEBD916A0200B6
:102800003964020079660200F1690200355D020058
:102810000000A04559600200F7B50F00FC215E4E94
:1028200001908905B86BB0475C495D4B9847041C23
:1028300028205C4B38569847211CB047211CB047D4
:10284000E2218905B047051C2623F85E554B9847C1
:10285000211CB047544B011C281C9847D8218905DE
:10286000B047E0218905B047FE214F4B89059847C5
:102870004E4B051CB88C9847291CB0474C4B009018
:102880009847002800D185E02E20464B38569847BF
:10289000DC218905B047211C051C201CB047011C08
:1028A000281CB047051C2C23F85E3E4B9847211C82
:1028B000B0473D4B011C98473B4B291C9847FA21D8
:1028C0008905B047394B051C01989847011C932096
:1028D000334BC0059847041C2A23F85E314B9847B8
:1028E0008F21C905B047304B291C9847E62189053F
:1028F000B0472B4B011C201C98472E49B0472E4B4C
:1029000000999847EE218905041CB047051C322325
:10291000F85E244B9847211CB047211CB047C021CA
:102920008905B04700903023F85E1E4B9847E021A0
:102930008905B047211CB0471B4B011C00989847E4
:102940003B00009034331878164B9847DC218905FA
:10295000B047291C0190281CB047291CB047011C16
:102960000198B047104B011C00989847051C2F2078
:102970000C4B385698478621C905B0470A4B011CB5
:10298000281C9847F6218905B047074B011C201CDD
:102990009847FEBD0020FCE73964020000007A473A
:1029A00079660200F1690200355D0200916A020059
:1029B000B16902000050C34559600200F7B50D002F
:1029C00006003D493D4BA86B9847009015203C4BB5
:1029D00028569847E2213B4C8905A0470099A0471B
:1029E000FE21394B89059847071C1620344B285681
:1029F0009847D6218905A0470099A0470099A0478C
:102A0000314B011C381C9847304B071C688A98478B
:102A1000DA218905A047011C381CA0472B4B0190E7
:102A200030009847071C1420254B28569847FC2156
:102A30008905A0470099A047244B061C288A98477F
:102A40008321C905A047204B011C301C9847204B0F
:102A5000011C381C9847011C0198A047061C18202F
:102A6000174B28569847D4218905A0470099A047BD
:102A7000164B071CE87D9847E2218905A047124BB9
:102A8000011C381C9847311CA047311CA047311C41
:102A90000D4B98470F49104B041C9847002808D14C
:102AA0000021201C0D4B9847002800D00024201C3A
:102AB000FEBD084CFBE7C0460000A045596002007F
:102AC000F169020039640200355D0200916A02007A
:102AD000796602000000C842895C0200615C020065
:102AE000F7B50400334F1A23C85E0D00B847E02144
:102AF000314E8905B0473149B047314B314998478C
:102B0000C823061C5B00201C9C4200D9181C2E4BBD
:102B100080B29847284C011C301CA047FE21284E4B
:102B20008905B047009019202856B847F621890535
:102B3000A0472649B047011C0098A04700901C20E0
:102B40002856B847EA218905A04701900E2028564B
:102B5000B847011C0198A047011C0098B0472B0002
:102B600000903C331878184B98478121C905B0472D
:102B7000011C8120164BC0059847011C0098A047F6
:102B800000903D202856B8471249A047FE218905EC
:102B9000B047011CFE200E4B80059847011C009891
:102BA000A0470D4B0D4998470D49A0470D4B98473D
:102BB000C0B2FEBDF1690200396402006F12033A2F
:102BC000355D020075021A3B916A02000000444222
:102BD000596002006F12033B796602000000C84191
:102BE0009A995940055D020000280AD0036C002B19
:102BF00007D0436C002B04D0836C584258414042AC
:102C000070470120FBE70000F7B5194B05000800ED
:102C10000C009847061E16D168B2C043637BC00FF4
:102C2000000183420FD06B46DD1D6073276C636823
:102C300001222900F320B84727004C3738700028BC
:102C400003D0022676423000FEBD1021637B2A7835
:102C50000B408A4313432B70636C01229C4629006E
:102C6000636873206446A04738700028EBD0E8E71B
:102C7000E92B010073B50D4B04009847002810D1D3
:102C80006B46DD1D012263682900F330266CB047D6
:102C900023004C331870002804D110222B781340E5
:102CA000637376BD02204042FBE7C046E92B01007A
:102CB00070B50B4B050010000E0014009847002D56
:102CC0000BD0002809D12B78B34205D901232E70EF
:102CD0004D3422781343237070BD01204042FBE73E
:102CE000E92B010073B50D4B15009A816A46D0712E
:102CF00007325A600122DA8176321A70FA220E0007
:102D0000074C92009C6000211800064B98472A004F
:102D100030002100044B9847002076BD604200201F
:102D20007042002069410100112C020070B500259D
:102D30007726094C531CE381084BA581A36063608F
:102D40001870074B074826709847FA212000890021
:102D5000054B9847280070BD60420020704200205B
:102D6000112C0200714200201541010010B5074BE3
:102D700098470749074B9847074B9847FA2189001E
:102D8000064B48439847064B984710BD916A02008E
:102D900000007A4459600200055D0200BD5802003F
:102DA000AD850100F0B540260700294CA5B0019182
:102DB000029221003200274D04A8A8473200A11931
:102DC00014A8A847244B380098478821234BC905ED
:102DD0009847234B039002989847224C2249A047DA
:102DE000224E2349B047019B224D9B000293029A39
:102DF00004AB071C2049D058A847FE218905B047DD
:102E0000011C381CA047011C0398A847FE21890516
:102E1000B047071C4020029A04AB1B18985816496B
:102E2000A847FE218905B0471449A047061C012088
:102E3000019B9840084B9847011C301CA047011C7F
:102E4000381CA047011CFE208005A84725B0F0BD16
:102E50004C870200112C0200916A02007966020080
:102E6000F1690200396402000000A040355D0200F3
:102E70000080A744596002000000C842BD370634F4
:102E8000F0B51D0089B00191244B06001700002108
:102E9000142203A898472800214B984700283BD1CB
:102EA000002E39D0019B002B36D07B1E0400092B4D
:102EB00018D9042028E02B7B002B28D1331918784F
:102EC0002900184B98477F213219127863000A4075
:102ED00003A95A54630003AAD318019A125D01345E
:102EE0005A70A4B2A742E6D800280ED102AB7A00ED
:102EF00002A918796C6C6B68013A0531A0474C3512
:102F00002870002801D00220404209B0F0BD315D98
:102F1000630003AA9954DDE70120F5E7472C02007E
:102F2000E92B0100092C0100F7B506001C00180070
:102F3000114B0F0001929847051E1AD1002F18D08F
:102F4000237B002B07D1210030000C4B9847051E36
:102F500001D180231E4363683000019A266C39003A
:102F6000B0474C342070002801D002256D42280063
:102F7000FEBD0125FAE7C046E92B0100092C01003E
:102F8000F7B56B469E1DE02333706B46DF1DB623FD
:102F90003B70114B04009847051E1BD1237B002B6F
:102FA00013D00E4D2300012239003000A847051E22
:102FB00010D1A36C61680A489847237B002B09D184
:102FC0002000084B9847050004E02000054B984777
:102FD000051EE6D02800FEBDE92B0100812E010070
:102FE00010270000752C0100F0B504008DB0574B80
:102FF0009847230001222100D020554FB847061ED4
:1030000000D09CE02378612B00D09BE001AD2870BC
:10301000230001222900F020B847002800D08EE0CC
:103020002B781722A360290023008A30B847002894
:1030300000D083E01B2123000E226944E130B84711
:1030400000287BD12921230005226944B8470028A4
:1030500074D16B460533DA7FEB7F12021343E383AF
:103060006A782B78120213432384AA78E31CDA7758
:103070006A792B7912021343A384EA79AB7912029D
:103080001343E38423002A7A28331A70EA7AAB7A4E
:103090001202134363856A7B2B7B12021343A385C1
:1030A0002300EA7B2E331A70AA7B5A70EA7CAB7C31
:1030B0001202134323866A7D2B7D1202134363861B
:1030C0002300AA7D34331A700F222B7E697E1A40AA
:1030D00009010A432282EA7D1B091201134363821C
:1030E000AB7E2375EB7E63752B7FA3756B7FE375DA
:1030F000AB7F237602ABDB7F63766B460733DA7FE9
:103100006B460633DB7F12021343638309232200DD
:103110006B44DB7F3C32237703ABDB7F9B069B0F4B
:1031200013700A2223006A44D27F3D331A702D2384
:103130006B441B783E345BB21B11237000263000B9
:103140000DB0F0BD03267642F9E7C046812F01009D
:10315000292F01007423F0B50E00032785B002AAC1
:103160000190D37102AB9C1D174D33000122210049
:103170007420A847051E12D123783B4212D0BB43CE
:1031800002A8237021003300012207300F4CA04712
:1031900071680500B36C0E489847002DE2D02800F6
:1031A00005B0F0BD019A002AF9D0019ABB433A401C
:1031B000134302A823702100330001220730034C7F
:1031C000A0470500EBE7C046292F0100812E010032
:1031D0001027000073B50B00041E0BD06A46D51DE6
:1031E000290001227420054EB04703222B7813409A
:1031F000237076BD01204042FBE7C046292F010025
:10320000F0B50D0089B005224549464B040006AED5
:1032100004A898470021444B05223000984702AB90
:10322000D81D2900414B9847002800D073E02900A1
:103230003F4B98470190002C00D16EE000285DD1F3
:1032400002AB187A05222B0031003A4FB8476A4684
:103250002B0012794D331A7000284FD1E01C2A0040
:103260000721354FB847002848D1601C2A000521A6
:10327000B847002842D1A01C2A000521B8470028E1
:103280003CD12A0005212000B847002836D1201D56
:103290002A000821B847002830D11C21E278337970
:1032A00092008B430A4067781A43F3781F307F01FE
:1032B00003403B43A7788B43BF003940072719439E
:1032C000F17073782178BB4339400B4373702379D5
:1032D00052B20021082B01D10121002302405B01E1
:1032E0001A4332717F223378C90113400B43337084
:1032F0007A3A2B00310004A8104CA04702AB0733E8
:103300001B78002B05D0002803D118002900084B9A
:10331000984709B0F0BD002CF0D101204042EDE704
:10332000CC870200112C0200472C0200D53101008D
:1033300055310100292F0100B12C0100812E01001F
:10334000F0B51D00B5B002900091049200210C224E
:10335000CC4F22AC0AA8B847482200212000B84729
:1033600028AB0B932EAB0C932800C74B0A949847BD
:10337000061E05D001235B420193019835B0F0BDD4
:10338000009B002BF6D0029B012B00D096E015ACE1
:10339000010011222000B84721002B001122BB4E52
:1033A0001D20B04723787F2219000F2691430A0081
:1033B000009933400A704B700390019063788B70D2
:1033C000A378E1781B0309010B43217909090B4319
:1033D0000593237A6779A079617A1B02194300016A
:1033E0003F030743E0790691A37B617B00098900D5
:1033F0000743980908430790E17B1E400891A9689C
:10340000247C202001294BD1102361B208400243C3
:1034100019400A43009B29001A7038009C4B9847BA
:10342000009B290098609B4B05989847009B2900BA
:10343000D860994B06989847009B1861AB68012BA0
:1034400035D1089BA509980028430325934BC01844
:1034500045430F2380201C40C002E040904B98471A
:103460009049914B984780235B01041CE8188F4BCF
:1034700098478F4B011C201C9847009B5861039B69
:10348000002B00D032E1009B1B787F2B00D830E16D
:10349000049B002B00D16DE76A46127A1A706CE724
:1034A00059B21023084002430B401A43B2E73E22B0
:1034B0003100AA5607987F4B9847DEE7029B023BF4
:1034C000012B00D918E10100332215A8B8471E22AC
:1034D00031000DA8B8472B00332215A91D206B4CD5
:1034E000A0470190002800D080E02B001E220DA9EB
:1034F0005020A04715AC01900296002876D1029A80
:103500000AABD65822787F2311009943703B1A40AA
:103510006378E078B370A37800011B03034320793C
:10352000677A0009034305936079A37900031B01BF
:103530001843E37931701B091843237A06901B0264
:103540001F43637BA8680893A37B07970393E37BE0
:1035500072700993277C202301285CD178B2034044
:103560000B431021014019430DAB3170995C9A183F
:10357000937A3171F370137D290073710698444B6F
:1035800098472900B060434B05989847424BF0603C
:10359000290007989847AB683061012B3FD1099B00
:1035A000B8099B0018433D4BC018032343438020B8
:1035B00003930F23C0021F40F840394B9847394905
:1035C000394B9847802252019446039B071C634461
:1035D0001800364B9847364B011C381C9847029B05
:1035E00070610433113402930C2B88D10023019AAB
:1035F00002939A4260D10AAA9A58039212787F2ABB
:1036000003D9029A0132D2B2029204330C2BF2D1C6
:103610000020010019E06846007B40B29FE70F21BF
:103620003E22039B03981940089B80099B00AA56E1
:103630001843204B9847D2E77F2B1FD80132D2B2D4
:10364000032A05D10430022936D00131C9B20A005B
:103650000AABC5589400E41826682F7833787F2F7A
:10366000EAD97F2BE8D9AF78B378DB1B9BB21FB2C6
:1036700002339BB2012B01D9022FDFDD0AABC6500A
:103680002560DBE7472C0200E92B0100292F010010
:103690007527010019280100BD29010000FEFFFF68
:1036A000916A02000024744939640200F169020041
:1036B00059600200A52D01000021019B06208B42CC
:1036C0000ED103000AAA8A584B430392009A043190
:1036D000D318039A70CA70C370CA70C30C29F0D192
:1036E000029B002B00D0D3E6022307E000230293C5
:1036F000CEE6039B0293F7E7012302900193C7E60E
:10370000F0B595B00191954900900292944B022238
:10371000053107A89847019B002B00D118E10299B9
:103720000020904B9847041E73D16E2206AB08AE62
:10373000DA708D4D0100643A3000A8470A2221005A
:103740000BA8A84711AF0A2221000EA8A8470A22F9
:1037500021003800A847009B022B00D199E0032BE1
:103760005ED0012B00D0F6E059333370019B0299F3
:1037700058887E4B984706AB20211875642306AA0B
:1037800052181370019B7A499A88FF238A4204D801
:103790003F2A41D8A401A418E3B200263B70029B43
:1037A000009A0BA908A8734FB847041E31D111AD78
:1037B000029B009A29000EA8B847041E29D16E4C1E
:1037C000029B022229007020A047041E21D1019BE8
:1037D0001A78012A00D0B6E0029B9B680093012B67
:1037E00000D1B3E008212B78E4008B431C436B78B5
:1037F00007318B430E401E43302312019E432C7031
:1038000016435C4C029B0222290007A86E70A04759
:103810000400200015B0F0BD01349208E4B2B7E70F
:10382000019BDD68002D00D192E09B680393002B83
:1038300000D18DE02700019B1B7C049600930BAB0D
:103840000593009BFCB2A34201D81E00A7E723000A
:10385000049A5A33BB54039B7E00985B0299434BF6
:103860009847059B6434F8540EABFC54A95B404B5D
:10387000FF22994205D800233F2906D89B015B18F7
:10388000DAB211ABFA540137DBE701338908DBB256
:10389000F2E7019BDB680393002B59D0019B9B68E7
:1038A0000493002B54D0019B5F8A002F00D1032486
:1038B0000025019B1B7C0093009BEEB2B34222D8F3
:1038C0002E4AFF2397420DD8FA20DE2180002C4B90
:1038D0007843FF319847002380B23F282FD89B01BF
:1038E0001B18DBB206AA911C0B70002C00D090E7CD
:1038F00006A8204C029B01220330A047041E00D0E2
:1039000087E7009E4BE73300082106AA52185A3376
:103910005355049B6A00985A0299144B98471422F5
:1039200006AB9B1858550C3206AB9B1864365E5597
:10393000039B6A009A5A11ABEA540135BCE7013384
:103940008008DBB2C9E7020001244BE7022249E705
:10395000012464425DE701245BE7C046CC87020096
:10396000112C020055310100472C0200E12A010010
:10397000BF0F0000812E0100292F010082070000E7
:10398000BD580200052330B50500012489B001A807
:103990008370033B29004370084B04709847FA2357
:1039A00003A99B008B80AF235B004B802A00200083
:1039B000034B0C70984709B030BDC046013201007E
:1039C0000137010037B5041E14D06B46DD1D0129F7
:1039D00006D177232B70094B01730364084B4364B2
:1039E0006420084B9847084B0020A36419236560A6
:1039F000A3733EBD01204042FBE7C046E52C010019
:103A00002D2D0100B1A301006D2D010070B5AAB0EC
:103A10009022114B05000E0006A8002198470F4B7D
:103A20000022186806A90E4B9847012811D10D4CA9
:103A30000998A047049005910A98A0470290039125
:103A40000898A047084A00900191084B31002800CF
:103A5000984700202AB070BD472C0200E0040020E7
:103A6000057901006D860200ED87020081370200B2
:103A7000F8B506000F00064D1B232800054C064A2A
:103A80000F21A0472A0039003000A0470020F8BDD0
:103A90007004002081370200E0890200302310B555
:103AA00010498AB00B700A2201A80F4B98470F4C9F
:103AB000021E13D00E4900200E4B984702200E4BD9
:103AC00098470E4B0E4898470E48A047BFF34F8FBC
:103AD0000D4A0E4BDA60BFF34F8FFEE70C48A0474C
:103AE000ECE7C0467C0000208D0202003593010007
:103AF00029880200D9930100E5550100AD85010038
:103B000070110100508802000400FA0500ED00E089
:103B10003988020030B50A4B85B00D000400984783
:103B2000084B03909847084A00900191074B2900E1
:103B30002000984703A8064B9847002005B030BDE9
:103B4000912101006D860200D787020081370200B3
:103B500025560100F0B5104B104C87B006000F0041
:103B60001868002221000E4B9847012811D1A06847
:103B70000C4DA847049005916068A84702900391F6
:103B80002068A847084A00900191084B390030008E
:103B90009847002007B0F0BDE40400208404002012
:103BA000057901006D8602000B8802008137020052
:103BB000F7B5634C6348A0476348A0476348A047F4
:103BC0006348A0476348A047634C002218210120A6
:103BD000A047624B002218600C210120A047604BD7
:103BE000604F18606048B847032200210120A047B9
:103BF0005E4B041E186006D103205D4B5D4998475B
:103C000020005D4B9847002668465C4CA047431C4B
:103C10002DD06B461B785A4D0A2B01D00D2B2DD180
:103C200000245848B847584B584E2C70584D1C70BB
:103C3000092229003000574B98477472564C3222A3
:103C4000564B2100280098472300002206003133FC
:103C500020001A70B847002EF0D131000A22280047
:103C60004F4DA847322231002000A847CCE73F4BF8
:103C7000010018684B4B98476846C7E72A78002A26
:103C800037D0414A117803292FD8481C1070464874
:103C900043541378012BB7D944494348444B9847C0
:103CA00000281DD03A4C1B224249434B2000984724
:103CB0002000B8470A220021394B20009847354B95
:103CC000092232492000984720003C4EB0470300AB
:103CD0000920082B01D82D48B047C6B22000B847AC
:103CE0000023294A2B7013708EE700232B7013706A
:103CF000CFE7082B01D07F2B0FD10422304901A838
:103D0000304B984701A8B847002E00D17CE700222D
:103D1000013E1F4BF6B29A5576E71B2B04D11A3B96
:103D20002B70194B1A706FE7092E03D8184A935558
:103D30000136F6B200236A4668465370B84763E717
:103D4000D95A0100088A0200F8890200D0890200CD
:103D5000C0890200E889020029720100E004002005
:103D6000E40400203593010063880200B042002083
:103D7000D9930100958902000D870100AD930100E0
:103D8000800400207A920200900400209F0400200A
:103D900095040020F3380200A90400201D5B0100F7
:103DA000472C02009D7B010091040020B489020091
:103DB00029380200B7890200E5370200C338020043
:103DC000D3870200112C0200002310B5074C23609A
:103DD000074B21001868074B98472368002B03D036
:103DE0008022054B52051A6010BDC046DC0400203D
:103DF000B0420020F578010004ED00E010B50100AC
:103E0000034800230A22034C0068A04710BDC046A7
:103E1000E00400205D73010010B501000348002399
:103E20000A22034C0068A04710BDC046E4040020ED
:103E30005D73010013B50024074B01A91868074BF7
:103E400001949847064B1C70019BA34203D080222B
:103E5000044B52051A6013BDE0420020F5780100C2
:103E6000E804002004ED00E010B5014B984710BDB8
:103E7000353E010013B50024074B01A91868074B14
:103E800001949847064B1C70019BA34203D08022EB
:103E9000044B52051A6013BDE0420020F578010082
:103EA000E804002004ED00E070B50C4C0C4D20003F
:103EB00000220C49A8470122637E200013430A49CF
:103EC0006376A8470222637E084913432000637685
:103ED000A8470423627E1343637670BDB842002076
:103EE0001D250100693E0100353E0100753E0100BF
:103EF0008022642370B58EB001AC9203226101224E
:103F00000193304B524263600023A2820A326A441A
:103F1000D3770CAA137031226A441370322203251E
:103F20006A44A36023732376A3621370D733238676
:103F3000254BE361254B2362254BE382254E22006E
:103F400025493000254B9847002833D10722356892
:103F5000EC691440FCD102232A6813432B603068BB
:103F60001F4B98471F2318401E3B83401D4A136078
:103F70001022F088698B114203D101348442F9D3B5
:103F80006A83194B9847194B01209847184C032214
:103F90002060184B002101209847174A0300106049
:103FA00022680620002A03D05A4253415B4218403F
:103FB0000EB070BD013D3000104BEDB29847002DA2
:103FC000BCD1C3E7480D0000020008000200090050
:103FD00010270000B8420020000800426956010086
:103FE00099D6010000E100E0A93E0100F57501004D
:103FF000B442002029720100E04200204159010032
:1040000010B5002811D04368002B0ED00278084963
:104010000A804B60C38907484B80074B98470023B1
:10402000984200D0063B180010BD08235B42FAE717
:10403000E4420020B84200205525010010B50028B8
:1040400012D04368002B0FD0037809490B80836896
:104050004B60838907484B80074B98470023984261
:1040600000D0063B180010BD08235B42FAE7C046AB
:10407000E4420020B842002035250100002310B59D
:1040800005481A0019000068044CA04700230128C5
:1040900000D0143B180010BDB44200205D73010035
:1040A00010B5054B01001868044B98470023012800
:1040B00000D01D3B180010BDB44200209D7B0100C4
:1040C000F8B504000D4B08000E009847002813D1E6
:1040D0000B4B20001F680B4B98470B4C051E0AD159
:1040E00031003800094B9847012804D1084B1A7851
:1040F000002A00D01D70A047F8BDC046A1400100B5
:10410000E04200203D4001007D4001009D7B010018
:10411000E8040020F8B504000D4B08000E00984795
:10412000002813D10B4B20001F680B4B98470B4CFA
:10413000051E0AD131003800094B9847012804D1E7
:10414000084B1A78002A00D01D70A047F8BDC04661
:10415000A1400100E0420020014001007D4001003B
:104160009D7B0100E8040020F7B5184B0700100004
:10417000019115009847002814D1154B38001E688E
:10418000144B984700280BD129003000124B984758
:10419000012805D1114C2378002B04D00023237073
:1041A0000F4B9847FEBD01980E4B984738000E4BB9
:1041B00098470028F4D129003000074B9847012880
:1041C000EED12378002BE9D1EAE7C046A1400100F7
:1041D000E0420020014001009D7B0100E804002036
:1041E0007D400100AD8501003D400100F0B5184B58
:1041F00089B098478026FA27019036047F0003ACE7
:10420000144B210001989847134D0023E05EA84706
:1042100005900223E05EA84706900423E05EA847CD
:104220000E4B07901B68002B02D005A80C4B98473B
:104230000C4C380066610C4DA8470C4B1B68002BDA
:1042400002D005A80A4B9847A6613800A847D6E7D0
:104250008D4701001544010009430100980B00201F
:104260000956010000440041AD850100E40400202E
:10427000193E0100F0B585B01F0002AB0500D81D46
:10428000802380260A4C5B420B43B60201920370E6
:104290000100666101222800064B984700233A007E
:1042A00001992800044DA8470020A66105B0F0BD83
:1042B000004400412DDB010021DA0100F0B5802728
:1042C000060085B00193094C02ABD971BF020733D8
:1042D00000921900064D67610122A847019A0099D2
:1042E0003000A8470020A76105B0F0BD00440041A0
:1042F0002DDB010010B544688068A04710BD10B5E3
:1043000004688068A04710BD10B5034B9847034967
:10431000034B984710BDC046F169020023DB793D8D
:1043200039640200F7B501AC0E0001232200102110
:10433000094F0500B84700280DD103210C230E407A
:104340002178B60099433143217022000B3B1021A4
:104350002800024CA047FEBDF5420100FF420100CB
:10436000F7B501AC0E00012322001121094F050011
:10437000B84700280DD107210E230E402178760082
:1043800099433143217022000D3B11212800024C3A
:10439000A047FEBDF5420100FF420100F7B501ACA8
:1043A0000E00012322001221094F0500B847002802
:1043B0000CD10123402221781E409143B6013143A4
:1043C0002170220012212800024CA047FEBDC046E9
:1043D000F5420100FF420100F7B501AC0E000123D8
:1043E00022001521094F0500B84700280CD10123F0
:1043F000082221781E409143F600314321702200AB
:1044000015212800024CA047FEBDC046F542010020
:10441000FF42010037B506230C006A460A4D2821E9
:10442000A8476B465A781B7812029B1823806B466C
:10443000DA789B7812029B1863806B465A791B7955
:1044400012029B18A3803EBDF54201000123F7B57F
:1044500001AC0E0022001900084F0500B8470028E3
:104460000BD13F232178B601194031433E3B2170E7
:10447000220019002800024CA047FEBDF5420100B1
:10448000FF42010010B50A0001230F21014CA04793
:1044900010BDC046F5420100F7B501AC0E00012386
:1044A00022001221084F0500B84700280AD1012335
:1044B00021781E40994331432170220012212800A7
:1044C000024CA047FEBDC046F5420100FF4201007C
:1044D000F7B501AE0C00012332001821164F05007C
:1044E000B847002827D101270221E209BA403378D2
:1044F00028008B431343337032003B0016310F4EBC
:10450000B047002817D13B006A46622128000A4EB6
:10451000B04700280FD103231C409C406B46182253
:104520001B78622193431C436B466A461C7028002B
:104530003B00024CA047FEBDF5420100FF420100D6
:1045400070B50E00084D02210400A84700280AD1CA
:104550003200022346212000044EB047002802D139
:1045600001002000A84770BD4D440100F542010044
:10457000F7B5124B0C00022105009847002815D111
:1045800001AE012332005F2128000D4FB8470028FB
:104590000CD13078C006800F11F086F902090B0D9E
:1045A0000023237000212800044B9847FEBD0123FF
:1045B000F7E70223F5E70323F3E7C0464D44010084
:1045C000F542010073B501AE0C00334B310005001C
:1045D0009847002851D132789307D10719435307E0
:1045E0000B4311070B43D106194393061943530696
:1045F0000B43D209DB0F13437278D107C90F0B436A
:104600009107C90F0B435107C90F0B431107C90F7E
:104610000B43D106C90F0B439106C90F0B4351063B
:10462000C90F0B43D2091343DB0710D56B46DE1CC1
:1046300031002800194B984700281ED130780328F4
:1046400005D811F031F9021B1F23002C22D00123C1
:104650006A4610212800124EB04700280DD16A4644
:10466000230114780F2214401C436B466A461C70C9
:104670001021012328000B4CA04776BD012CE6D861
:104680000224E4E7022CE2D80324E0E7032CDED87E
:104690000424DCE70124DAE741450100714501000B
:1046A000F5420100FF42010073B501AE0C00334B2F
:1046B000310005009847002851D132789307D1077F
:1046C000194353070B4311070B43D10619439306B4
:1046D000194353060B43D209DB0F13437278D107FA
:1046E000C90F0B439107C90F0B435107C90F0B4368
:1046F0001107C90F0B43D106C90F0B439106C90F10
:104700000B435106C90F0B43D2091343DB0710D5E6
:104710006B46DE1C31002800194B984700281ED13B
:104720003078032805D811F0BFF8021B1F23002C96
:1047300022D001236A4611212800124EB0470028DA
:104740000DD16A46230114780F2214401C436B4696
:104750006A461C701121012328000B4CA04776BD2E
:10476000012CE6D80224E4E7022CE2D80324E0E797
:10477000032CDED80424DCE70124DAE741450100FC
:1047800071450100F5420100FF42010000487047F9
:104790008C00002073B56B460026184CDD1DDE71C1
:1047A0002900174B200098472B786C2B22D1012130
:1047B000144B200098478021134B05002000984798
:1047C0000121124B200098470121114B20009847EE
:1047D0000721104B2000984707210F4B20009847D6
:1047E00031000E4B20009847022120000C4B9847C7
:1047F000280076BD01256D42FAE7C0468C000020F6
:104800008544010099440100D14401009D43010009
:10481000D9430100C5450100A94601002543010017
:1048200061430100F0B58FB06B46002601241120D2
:10483000294D5C709E701C706946284B28706E7004
:10484000AE7098472A785309D509B54241D11F2740
:1048500021003A4091400A002149DB015B189A612E
:104860006B461D745D749C741D751C700533DD777B
:1048700029000C221B4B06A80195984798235B033F
:104880000393194B194E0A93194B6A460B93012354
:104890005B420C93174B18490D93184B300006934D
:1048A00080235B0502936B46DD74154B9847356892
:1048B000144B280098470740BC40134B1C603268DB
:1048C000D369002BFCD12A68023313432B600FB04D
:1048D000F0BDB661FFDEC04698000020DDD00100CB
:1048E00000440041472C020003002200F042002057
:1048F0000300230002001500001C004240420F008C
:1049000059D8010099D6010000E100E0F7B51F4B2E
:1049100098471F4B98471F4A1F4B204CA047204BDE
:104920009847082300251F4C0190A361019B9D42DD
:104930000CDB1D4B019A1B680025D31A0193082339
:1049400004266361019B9D4217DBF7BD174B984717
:10495000174E184B3168071C9847002802D0124B9D
:1049600037601D6004233220A361134EB047042337
:1049700032206361B0470135D8E732200E4FA6617F
:10498000B84766613220B8470135DBE7F1690200BC
:104990006D860200CDCCCCCCCCCCFC3F3D7102006E
:1049A0001185020000440041EC0400209121010027
:1049B0009C000020895C0200B1A30100024B1A7820
:1049C000104318707047C046F10400200122014BCB
:1049D0001A7070474C07002010B5014B984710BD66
:1049E000C510020010B5014B984710BDB910020068
:1049F00010B586B06846144B9847144B144A02937E
:104A0000802304926A469B0003930593114B124C3A
:104A10001380124B694693802000114B9847021E69
:104A200004DA10490120104B9847FEE70F49200097
:104A30000F4B9847021E04DA0E4901200A4B984793
:104A4000FEE706B010BDC0468D10020088070020AA
:104A5000880900205B070000500700207017000045
:104A6000FD0F0200378A0200D99301006D4B01004F
:104A7000A9100200688A02007FB50C00FF21230004
:104A80000500220E0292220C0A400192220A0A40DC
:104A90000B400092044E020004490120B047280058
:104AA0002100034B98477FBDD9930100828D0200FE
:104AB000091C020010B5014B984710BD8126020069
:104AC00070B5040042680949936801205268084D96
:104AD000A84723689B681B78312B05D10548064BF6
:104AE00098477820054B984770BDC046188A020049
:104AF000D99301001F8A0200359301000D4901007E
:104B000037B501250F4B104A1B7810492B4202D0B4
:104B1000990703D40E492800904737BD590701D59E
:104B20000C49F8E708241C4001D00B49F3E72800A2
:104B30000A499047009423002A000949094C0A4871
:104B4000A047EAE7F1040020D9930100AF8D0200ED
:104B5000D88D0200028E02002D8E0200598E0200B6
:104B6000838E02004D2002008443002070B50600B1
:104B700086B00C00012928D0052935D0002918D18C
:104B800013681C4D002B16DB1B490120A8471B4A4C
:104B9000059404940394029401940121009213005B
:104BA0003000174CA0471749002800D016490120B3
:104BB000A84706B070BD154C154922000120A84732
:104BC00021003000134B9847F3E71278094D002A73
:104BD00006D10A00104B1149114EB0471149E6E7C2
:104BE00011492000A847E4E710490120014B9847EC
:104BF000DFE7C046D99301007D8C0200978C02004C
:104C0000F9100200CD8C0200A58C02006B8C020012
:104C1000E88C0200D1100200C14A01001E8D020082
:104C2000ED110200278D0200388D0200698D02000F
:104C3000F0B5C7B0434CFB22002107A8A0470922CA
:104C4000002104A8A04700223F4C404E2000310024
:104C50003F4B039298473F4B0500200098470124A3
:104C6000002D05D130003C4FB847FA2803D9002465
:104C7000200047B0F0BD2E213000384B9847051E6C
:104C800051D0B8476B4601909B880093072B4AD8B8
:104C9000334B290004A898473000B8476B469B88DF
:104CA000C01A304BF6283BD9F627009ABF1ABFB27C
:104CB0003A00310007A898472D2201257B1C9BB2A2
:104CC000009307ABDA552A002749284B03A89847D9
:104CD000009A07AB981803A90322224B9847002C8F
:104CE00006D0009B04A9D81C07AB18181C4B98478A
:104CF000154E174B002207A930009847154B0700A7
:104D000030009847002F16D0104CFA2200212000C6
:104D10000C4B9847200007A9114B98470124A7E79F
:104D2000AD1BAFB2C4E7F622310007A80D4B984780
:104D30000024F627C0E7FA2301359B009D42C2D12B
:104D400095E7C046472C020024070020E000002021
:104D50008D02020039060200C33802001D3902002C
:104D600079380200F33802007D8D0200E537020039
:104D7000F0B585B001900F00002801D0002905D1C1
:104D800035490120354B984705B0F0BD344B1B78B1
:104D90001B0731D43023334D334C2B700A336B70E7
:104DA00023782F2B1AD12000304B98472B4E012807
:104DB00016D9611C2E4BA81C98472E4B98472A00E9
:104DC0002D490120B0470A2229002C482C4B984736
:104DD000021E0CD02B490120B047D5E7013CDFE78C
:104DE00001202949B0472020284B9847CCE7284B81
:104DF00018600820254B98470023204D0393254C2D
:104E000003AB3A0001992800A047144C002809D0B0
:104E10002800214B984720201C4B98471F49012010
:104E2000A047B1E71A4E1E4F3368039A1D499A18DE
:104E300001203B683260A04732683B689A42A3D3A6
:104E4000154B2800984701201749A0478022174B8F
:104E500012045A611020C7E7A88E0200D9930100FE
:104E6000F1040020E0000020A78E0200C3380200F9
:104E700079380200314C0100C98E0200240700205D
:104E80008D0202002F8F0200F18E0200BD49010049
:104E9000880B0020ED03020039060200608F02003B
:104EA000480700209A8F0200CD8F02000044004185
:104EB00037B52C2802D0322830D037BD08780128E9
:104EC00005D12549254B9847254B9847F5E70028FC
:104ED000F3D1224B23490130984702220825224C66
:104EE0002378934323702B4205D0204B20489847CA
:104EF0002378AB43237004222378134201D09343D9
:104F0000237001211B4B1C489847FF23022200936A
:104F100011211A4B1A4C1B48A047CEE7C8784B7892
:104F20000A7801908978012000910C4C1649A0471D
:104F3000164B02209847164B1B78012B02D1154BBC
:104F40009847BAE714490C48144B98470028B4D046
:104F500013490120A047B0E780910200D9930100D6
:104F600091B301009E910200F10400203906020075
:104F7000240700208911020050070020BF91020081
:104F800079B30100CC910200DD910200BD4901001E
:104F9000F0040020014B01006B8C0200D1100200D4
:104FA0000292020070B51400042909D8080010F01C
:104FB0007BFC0308102A320025490120254B984725
:104FC00070BD01202449234B98470420234B984768
:104FD000F6E763681288224901201E4DA8472388FE
:104FE000C82B0ED100221F4B616819601E4B1A603E
:104FF00080239B009942E3D8A0681C4B984710205F
:10500000E4E72020E2E7194B116850689847237ABB
:10501000002BD5D0F3E70F4B1268154901209847B4
:1050200023680B33CCD10825124C23782B4205D0B2
:10503000114B124898472378AB43237004222378FE
:10504000134201D0934323700D4B9847B8E7C046F5
:105050009C8A0200D9930100D28A0200BD49010056
:10506000FD8A020048070020880B0020714D0100D6
:10507000378B0200F10400203906020024070020CB
:10508000014B010070B51A4B98471A4901201A4C80
:10509000A0470020194B9847050001280AD118495C
:1050A000A04718492800A0470020174B984702281E
:1050B000FAD1EEE70028ECD114490120A0478C2258
:1050C000134E92002900134B3000984731002800FE
:1050D000114B984702000B2803D110490120A0472B
:1050E00070BD0F490120A04701200E4B9847F7E7FC
:1050F00085950100678B0200D9930100D99B0100BF
:105100009D8B0200C58B0200A5950100F68B020065
:10511000F4040020472C0200650202001A8C0200F1
:10512000498C0200BD4901001FB501AC2000074BAE
:10513000984700230A206360013323720133E3722E
:105140002100034B019098471FBDC04659D0010074
:105150006DD0010010B500220A21044B0448984785
:1051600000210A20034B984710BDC0461DCF010007
:10517000CD49010045CF0100F0B5002495B0642071
:10518000D04B9847D04BD14D2200042105201C70F4
:10519000A847CF4F220038600C210520A847CD4BEF
:1051A0002200186004210220A847CB4E2200306064
:1051B00018210520A847C94BC94C18603B68002B33
:1051C00008D0C44B1B68002B04D03368002B01D0DF
:1051D000002801D1C348A047C348A0470DA8C34B2E
:1051E0009847C34C0DA92000C24B98472000C24BE2
:1051F00098470DA8C14B98478023C14E9B0011933F
:105200000DA93000BF4B0E949847BF4D021E03DA24
:10521000BE490120A847FEE7BD49BE4B3000984774
:10522000BD4B9847BD4B9847BD4B9847BD4B9847E2
:1052300018220021BC4B07A89847BC4B9847BC4B91
:1052400007A80793BB4B9847021E03D0BA49012019
:10525000A847FEE7B94EBA4932000120A847B94B2A
:105260009847B949B948BA4B9847FF23B94D0093BD
:105270000222B94B11213000A8470225924B187821
:10528000284011D0FA208F4B800098470122002738
:10529000B24B1A700020B14D2856032800D90BE1FB
:1052A00010F002FB082DBBE6AD4B98472000AD4B3C
:1052B0009847E3E7AC4B9847974B9847A249A348D8
:1052C000A34B98479F4B9847A84C230034331B7837
:1052D000002B0DD1A6492000A64B9847002803D0EB
:1052E000A5490120884B984734342378002B03D0FC
:1052F000A2490120844B984701232B707CE0984BF6
:10530000002098477A48974B9847744B00221868BA
:105310000DA99B4B9847060001281ED1994D0F9867
:10532000A847049005911098A847029003911198FE
:10533000A847049A059B944C00900191934D944981
:105340002000A8472000934B9847220003000197B4
:10535000009691498548914CA0475E4B0022186801
:105360000DA9874B9847060001281ED1854D0D9841
:10537000A847049005910F98A847029003910E98B2
:10538000A847049A059B804C009001917F4D844969
:105390002000A84720007F4B984722000300019778
:1053A0000096804971487D4CA0474B4B00221868FD
:1053B0000DA9734B98470600012814D1714B0D9825
:1053C0009847714D02000B00280077496F4CA047A9
:1053D0002800704B98472A000300019700967349F4
:1053E00062486E4DA847614B34331B78002B03D0C5
:1053F00064215E486E4B9847354B0DAC186800220F
:1054000021005F4B27709847012802D12278534B27
:105410001A7064202B4B98473CE7544C54492000A9
:10542000644B9847002803D053490120364B9847D6
:10543000230034331B78002B0ED14B4B98470122AD
:105440005D4B5E491A705E48414B98473D4B98470B
:105450005C4B9847032350E7414B00209847E7E710
:105460003F4B0020984722483E4B98470520B047C5
:10547000154B144E1C7810231C42F1D0DB181C4035
:10548000EED1394B9847FA208000B0474A4B0C22A6
:105490001C704D494D4B0DA898474D4E0A220DA941
:1054A00030004C4B9847021E08D04B492000164B49
:1054B00098473000494B98472F709DE74848084B64
:1054C0009847F6E7AD850100F1040020297201003C
:1054D0009C0B0020980B0020900B0020940B0020C8
:1054E000359301000090020027900200C1270200BE
:1054F0002C430020CD2702006D280200B11A0200C3
:1055000084430020D91A0200D9930100419002007F
:10551000A54F0100711B0200F149010085500100F7
:105520002951010055510100472C0200F1A301004F
:10553000B14E010059B0010086900200CC910200EA
:10554000B190020015C90100D9490100E5490100E7
:1055500091C9010079B30100BF9102008C0B0020BA
:1055600081B10100F528020055C901005007002053
:105570006B8C0200D110020002920200D590020052
:10558000057901006D860200A0000020E5370200C9
:10559000F1900200C338020013910200B51102001D
:1055A0002691020040910200499102004F910200B1
:1055B0001112020089110200F0040020794A010052
:1055C000B54A0100014B010074910200112C020048
:1055D000240700208D0202002988020039060200FB
:1055E0006191020013B56B46D91D0870032805D8D8
:1055F000034800230A220068024CA04713BDC0469E
:105600009C0B00205D73010010B5010003480023CE
:105610000A22034C0068A04710BDC046980B00202A
:105620005D73010010B50100034800230A22034CFA
:105630000068A04710BDC046900B00205D730100BC
:1056400010B50100034800230A22034C0068A0475C
:1056500010BDC046940B00205D7301000723016854
:10566000CA691A42FCD17047F0B507008BB03960A7
:1056700008009B4B14000E0098470125831C9D4099
:105680002B00984A1430116AC5B20B431362237B76
:1056900008AA137011002800934B98472800934BD9
:1056A0009847934B207B0021984733681C209B0729
:1056B00000D509E10123356817381D4000D003E10A
:1056C000874B386898478B498B4B04909847049BCD
:1056D0003D769A00894B7D76D750BB1D7D83BD8377
:1056E000DD7714233D6233603B6809AE04931800F4
:1056F0007B4B984780230090E06933707F3B757047
:10570000F570B370256A002803D101007C4B049822
:10571000984702233070000C7370C0B23100794B8F
:105720009847002D04D101210498754B9847050036
:10573000022335702D0C7370E8B2724B310098471C
:10574000A38AFB80E38A3B81227E8023002A06D144
:105750006D4B02329B7813405F1EBB41DB01A26898
:10576000276917431F43631DDB7F002B02D0802373
:10577000DB051F43A36A1F4323002C331B78002B38
:1057800003D180239B049A4202D180231B051F432F
:1057900023002D331B78002B02D080231B041F43D2
:1057A00023002E331B78002B02D08023DB031F4302
:1057B000049B00981B68FA251F43049B049A1F60F2
:1057C000802314305B005360C0B2504B984723686D
:1057D000AD005D436368070005934D4B98474C4B04
:1057E000009001916800984702900391484B208EE9
:1057F0009847484E0690079100980199464A474BB2
:10580000B04702000B0006980799B047444E0022AB
:10581000444BB0473E4B06900791280098473D4DBA
:1058200002000B0006980799A8473F4D02000B00A5
:1058300000980199A847029A039BB04700223B4B6E
:10584000A847029A039B3A4EB0473A4B98478023A9
:105850000290A2689B049A423ED1FA23059C9B00C9
:105860005C43009A019B2E4E10001900B047284B54
:10587000009001912000984700222F4B254EB04701
:105880002B4E02000B0000980199B0470022274BD5
:10589000A847284B9847294B061E17D021003800EF
:1058A00098470238831B029A4020FF2A0CD8FF2B0E
:1058B0000AD8FF20150000041B0403400020360610
:1058C0003543049A2B43D3600BB0F0BD6100481EF2
:1058D000C0199847431EE6E700263300E3E7C046B9
:1058E0002DD601000004004039E80100B1E70100B5
:1058F0008DD401007525010061D60100805600207D
:10590000D1D401003DE901000020004155E801002B
:10591000FD850200A579020095D626E80B2E113EE2
:105920001D6B020000002440A57E02000000F03F35
:105930003D7102001185020000000840BD580200C0
:10594000F7B504000368124E0193B0472568114F64
:105950002800B8471F230122184082400E4B200028
:10596000DA67B047832302222B752B762B6893438B
:105970002B600A4B98472068B847094B9847094B5A
:1059800098472000B0470122019B1A60F7BDC0462E
:105990005D56010099D6010004E100E085CE0100CA
:1059A00089E80100B9CE010002220368197E114284
:1059B00006D01A765B8B412013420AD1002008E002
:1059C0005A8B5207FAD5C0221820596892020A430E
:1059D0005A60704770B500220126022401680B7ED0
:1059E000334002D10D7E254201D0002005E0013276
:1059F000038992B29342F2D8122070BD802310B571
:105A00000468DB026268134363606162024B98477B
:105A10000123237610BDC046D559010070B501267B
:105A2000144B8000C4582368227E657E9B7B154002
:105A30001D40354204D0A3682000984723689E7318
:105A40000226354204D0E3682000984723689E73FD
:105A50001026354204D023692000984723689E739E
:105A60002026354204D063692000984723689E733E
:105A700070BDC0466C44002010B50020014B984713
:105A800010BDC0461D5A010010B50120014B9847BA
:105A900010BDC0461D5A010010B50220014B9847A9
:105AA00010BDC0461D5A010070B5084C0A0023689D
:105AB000002B01D1064B236025682B685968054BE4
:105AC000984768682060431E984170BDA40B002071
:105AD000E0010020F338020070B5051E01D172B656
:105AE000FEE70820094B9847041E01D172B6FEE775
:105AF000074B984700236360064B25601A681C60BB
:105B00005460054B9847012070BDC046B56E01003A
:105B1000F16D0100DC010020096E0100F0B5324B8F
:105B200085B002921A6806000191002A0FD0012365
:105B30001C002D4F3D68002D4ED0002C40D12B4B2A
:105B4000029A2B490198984723003B6041E0294A7B
:105B500003931A60039B1C68002CE8D02768264B2F
:105B60003D68280098472021335C02008B4323D1F5
:105B700029003000214B984700281DD10C23FB56EB
:105B8000002BD4DB3200040001211578002D08D150
:105B9000012801D1013C64B21C1B62426241140025
:105BA000C7E7202D06D1012802D00800013464B2D5
:105BB0000132EAE70020FBE762680B4B1A60C9E795
:105BC0002B6832009B680299019898470400031ED5
:105BD000BBD0200005B0F0BD029A09490198034BE3
:105BE00098472C00F5E7C046A00B0020F3380200D0
:105BF00025920200E0010020C3380200D1380200E3
:105C00007D92020010B5014B984710BDC17E010086
:105C100010B5024B984780B210BDC0463D8A0100C6
:105C200010B5024B9847000C10BDC0463D8A0100DC
:105C300070B5054B0D0004009847010C0904294379
:105C40002000024B984770BD3D8A0100458A010043
:105C500070B5054B04000D0098472D0481B229430F
:105C60002000024B984770BD3D8A0100458A010023
:105C700010B5024B984780B210BDC046B97E0100F6
:105C800010B5024B9847000C10BDC046B97E01000C
:105C900070B5054B0D0004009847010C0904294319
:105CA0002000024B984770BDB97E0100BD7E010007
:105CB00070B5054B04000D0098472D0481B22943AF
:105CC0002000024B984770BDB97E0100BD7E0100E7
:105CD000002210B5094BD100CC58002C05D101226F
:105CE000C85052425B185A6010BD01320A2AF2D1E4
:105CF000034A136801331360F6E7C046B00B002077
:105D0000000C0020F7B50127154C23680193236888
:105D1000144DDB005859061E16D0134B98472368C4
:105D2000DB00EA185168884200D25060E8580F4BF7
:105D30009847FF2223680240DB00ED186B680321BF
:105D4000EA200B4DA8473E0023680A21581C094B46
:105D500098472160002E02D1019B8B42D7D1F7BD1D
:105D6000AC0B0020B00B00204D8A01003D8A0100E1
:105D7000656901009D5B020010B5054B984700283E
:105D800001D0044B98470420034B9847F5E7C046E1
:105D9000695F0100055D0100AD85010010B5014B93
:105DA000984710BD718A010013B50E4B0400984747
:105DB000012C0ED10C4B98470C4A1368002B07D1CD
:105DC000019204220A4900920A48C4320A4CA047B0
:105DD00013BD0A48022C02D0002CEDD00848094B14
:105DE0009847E9E7795F0100596C0100A80B002092
:105DF0009E960200795D0100318001002A96020022
:105E00006A9602002161010010B5234B09221B682C
:105E100011241900DA65643101320A704A708A70FF
:105E200018000532CA700521683001704170817018
:105E3000C1700171190070310A704A708A70CA709D
:105E40000A714A718A71CA710A721A0010217C3271
:105E50001170517091704176190013228231C27510
:105E600004760A704A708A701A0000218832118004
:105E7000A0315180A0319180A031D180074911819A
:105E800007495181074991810749D1815F311182C9
:105E9000064A1A6610BDC046040C0020FD02000030
:105EA00052030000A203000001040000BF04000030
:105EB0000022174B5A821A800A329A825A800A327A
:105EC000DA829A800A321A83DA800F325A831A8170
:105ED00005329A835A810532DA839A8105321A840F
:105EE000DA8105325A841A82383A9A840A32DA847C
:105EF0000A321A850F325A8505329A850532DA85BB
:105F000005321A8605325A8605329A867047C0468F
:105F1000200C0020034B082802D8034B8000C358F4
:105F2000180070473893020014930200002310B544
:105F3000934200D110BDCC5CC454CC5C002CF9D091
:105F40000133F5E710B5064B1B68002B01D000228A
:105F50001A63044B1B68002B00D0984710BDC04645
:105F6000040C0020CC0C0020024B1B68181E00D033
:105F7000186B7047040C0020F8B5484A1368002BD2
:105F800000D085E0464B1360BD25464B434C1A6854
:105F9000454B2D011A6000212A00444B2068984788
:105FA0002368434A96219A8105229A730022490068
:105FB00099614049DA731D6159659A655A633E4B90
:105FC000984720683D4A3E4B0125C250C822043301
:105FD000C2503C4B3C4AC5505533FF33C2503B4B3B
:105FE0005022C0183A493B4B984723683A493B4AEC
:105FF000F32699500A213A4AF4279954394A491903
:106000009954394A49199954384A49199954384A7E
:10601000643199547221374A99547321364A9954FC
:106020007421364A9954F121354A9954F221354A5E
:106030009954354A9E54354A9F54354B9847F2221D
:106040002368DF729E725A72F1221A727422DA7118
:1060500073229A7172225A7171221A710422DA70B3
:106060000323226893702268013B537023681D70DC
:10607000284B196800290FD02368144A9818502219
:10608000144B98472268244BD550244B984703E083
:106090001B78012B00D077E7F8BDC046040C002028
:1060A0007844002018E000E048500020472C02000F
:1060B000A11A0000F0F0F0F0095E0100F1F1F1F139
:1060C0005C05000064050000F2F2F2F2BC0600007C
:1060D000289802002D5F0100F3F3F3F30C07000092
:1060E000C40B0000C50B0000C60B0000C70B00006E
:1060F000C80B0000C90B0000CA0B0000CB0B00004E
:10610000CC0B0000CD0B0000CE0B0000CF0B00002D
:10611000B15E0100BC0C0020B4060000455F010028
:1061200070B50D4C05002368002B01D00B4B984730
:106130000B4B1A68002A0DD120681D60002809D079
:10614000084B5032C0182900074B9847012122689C
:10615000064BD15070BDC046040C0020455F0100C5
:10616000BC0C0020BC0600002D5F0100B40600003E
:1061700010B50A4B1B68186B002808D02C22D86970
:10618000FF32904204D90648064B9847002010BDC4
:10619000E2228000D20080181818F8E7040C0020D2
:1061A0003C98020021610100F7B50026019000280B
:1061B00022D11F481F4B9847F7BDE2211E4BC90053
:1061C0001C68E369F3189D006219521812781100D7
:1061D0006731C9B20E2913D86832D2B2A169D31877
:1061E0008B4208D2E223DB00ED18013292006019E5
:1061F0000021124B98470136019B9E42DDD3DBE71D
:10620000012AF8D1E222D200AD18A26901330B4F66
:10621000934204D2082260190021B847EBE7E22339
:10622000DB000422E0180021B84760190422F3E7DC
:10623000A596020021610100040C0020472C0200F9
:1062400010B50B4B1B681A6B002A10D02C215A6911
:10625000FF3101325A61DA690132DA618A4203D9C7
:1062600001221A620022DA610120024B984710BD18
:10627000040C0020A961010070B5094B05000C0059
:106280009847002809D0012303702300AB431A0A62
:106290001B0C43804270034B98472000284070BD80
:1062A000716101004162010010B5082904D90E484E
:1062B0000E4B9847002010BD002807D00C4B1A68E1
:1062C00053181C0064342478844201D20948EFE753
:1062D0007C331B78013840315843490051180B89F1
:1062E000C01880B2E7E7C046C59D020021610100E9
:1062F000040C0020029E02000B0010B501001800E3
:10630000044B9847044B1B68181801239C300370FA
:1063100010BDC046A9620100040C002070B5050044
:1063200014000800082D03D90C480D4B984770BD88
:106330000C4E33685B1964331B788B4201D20A48D8
:10634000F3E72900094B984733685D1970352A78BF
:106350001B189B189D331C70E9E7C0466F9902001B
:1063600021610100040C0020B8990200A96201001B
:1063700070B504000800082C04D90D480D4B98474F
:10638000002070BD0C4D2B681B1964331B788B42A9
:1063900001D20A48F2E72100094B98472B681C19E3
:1063A000703422781B189B189D331878E9E7C04693
:1063B0009F97020021610100040C0020E897020071
:1063C000A962010070B5050014000800082D03D96A
:1063D0000C480D4B984770BD0C4E33685B19643305
:1063E0001B788B4201D20A48F3E72900094B9847F2
:1063F00033685D1970352A781B189B189C331C7004
:10640000E9E7C046F098020021610100040C002079
:1064100034990200A962010010B50B4C2368673360
:106420001B78834203D20948094B984710BD094B9A
:106430000321984723681A00733212781B189B189F
:1064400000229C331A70F1E7040C0020F899020036
:1064500021610100A9620100F7B52A4B1C68002CDC
:1064600005D12948294B984700210800FEBD08287E
:1064700001D92748F6E7EFF310830193012383F353
:106480001088244C4600236801332360224BF25AC3
:106490009F184837397800290BD10825AC46844429
:1064A00065466D00AC469C4465466D88511C491B91
:1064B00039700100103149005918898891420BD276
:1064C000164B9847114B984700212368013B2360E6
:1064D000019B83F31088C8E79918013292B24831C2
:1064E00009789A530600083676009E197688961B1E
:1064F0000200183252009B18DA889642E5DDF6B2A7
:10650000DE80E2E7040C0020C09E02002161010051
:106510005A970200B40C0020200C0020155F0100E7
:1065200070B5040015000800002A03D11348144B6D
:10653000984770BD082C01D91248F8E7002901D10D
:106540001148F4E7114E33681B1964331B788B42F2
:1065500003D220000E4B9847E9E70E4B21009847E5
:106560000D4B1B68002BE4D133689C301C19703430
:10657000181822782900094B9847DAE76398020037
:106580002161010095980200C3980200040C0020CC
:10659000155F0100A9620100BC0C00202D5F010005
:1065A000F0B51E4B1B68012B05D1002802D01C4BF7
:1065B0001B680360F0BD1B4B1B4A19681268013150
:1065C000891A1A4A1A4D12682E68D743F74223D502
:1065D000964205D1174C2668B142B64176429219CF
:1065E000002810D01F680E4E0137BF085743376090
:1065F0001B6801331C0003231C40230053435B181A
:106600009B08DB1933602A60002802D0044B1B680A
:106610000360084B1960CDE73200DBE7C00C0020B7
:10662000180C002014E000E018E000E0C80C002086
:106630001C0C0020140C0020F0B5002485B00600CE
:106640000394FF2808D0344B984205D03348344B8C
:106650009847200005B0F0BD324D2C68636A002BCE
:1066600005D1314B186800283BD0800860622F4B61
:1066700003A898472E4A2D68039B11686F6A5C1A1D
:106680001360002F39D0AB6A0193BC4232D9390074
:10669000284B20009847EB6A39001818E862264B0F
:1066A00020009847019B5918A962AB6A9F4204D801
:1066B000EA6ADF1B0132EA62AF62B4420ED91F4BB5
:1066C000984700280AD0144B9E4218D1A923037082
:1066D000230C438000234370194B9847200030401F
:1066E000B8E7184B1A68184B1B689A42BFD0174B73
:1066F0009847BAE7019B1919D6E7AB62DDE7FF2E91
:1067000005D1A8230370230A4380230EE3E7104832
:10671000034B9847E0E7C046FFFF0000FA960200EF
:1067200021610100040C0020B80C0020A1650100CB
:10673000B00C0020BD580200C9590200716101006F
:106740004162010018E000E04850002029E7010004
:1067500037970200F8B5051E0DD0184B1B68002BAB
:1067600009D017480F2D04D8164C2368002B03D0EE
:106770001548164B9847F8BDEFF31086012383F3B5
:106780001088236801332360114B1B681B6B002B9F
:106790000DD0104B10489847104B07009847002821
:1067A00005D002234780037045700D4B984723683E
:1067B000013B236086F31088DDE7C046F40100202A
:1067C000D19C0200B40C0020109D02002161010048
:1067D000040C002039660100FFFF00007161010018
:1067E00041620100F0B52C4F85B03B6802900D006E
:1067F000002B4FD0D317D6185E40EFF310830193D0
:10680000012383F31088254C23680133236000297A
:1068100003D0234B19688A181A603B681B6B002B46
:1068200032D0204BFF2098471F4B03909E4204D943
:10683000310018001D4B984706001D4B98470090EB
:10684000002821D06A460023127B037046804270E4
:10685000184EB047144B9D4204D929001800134B21
:1068600098470500124B984700280DD0002343702D
:106870006B461B7A45805A1C0270009A1370B04711
:10688000074A3B6812681A652368013B2360019B35
:1068900083F3108805B0F0BD040C0020B40C002078
:1068A0000C0C002039660100FFFF00007962010036
:1068B0007161010041620100F7B5050017001D4834
:1068C000FE2D02D8082903D91B481C4B9847F7BD59
:1068D0001B4A1C481368591864310B78BB42F4D327
:1068E000194C1A482368002BEFD1194B1B78002B49
:1068F000EDD0EFF31086012383F310882368013372
:10690000236013681B6B002B0ED0124B1248984764
:10691000124B01909847002806D06B469B88057063
:10692000438047700E4B98472368013B236086F3F2
:106930001088CCE7409A0200759A0200216101009C
:10694000040C0020BA9A0200B40C0020009B020044
:10695000080C002039660100FFFF00007161010092
:1069600041620100F7B5060000921D002248FE2E8C
:1069700010D8224808290DD8214A224813685918EE
:1069800064310B7800998B4204D31F4C2368002B91
:1069900003D01E481E4B9847F7BDEFF31087012325
:1069A00083F3108823680133236013681B6B002B6B
:1069B0001CD0184B1B78002B18D0FF20164B984783
:1069C0000190FF2D04D92900FF20144B98470500A2
:1069D000134B9847002809D06B461B790670C3708B
:1069E0006B461B78857043700E4B98472368013BBC
:1069F000236087F31088CFE7BF9B0200FF9B020054
:106A0000040C00204D9C0200B40C00209C9C020051
:106A100021610100080C0020396601007962010043
:106A20007161010041620100F7B506000D001C48CC
:106A3000FE2E04D81B4C2368002B03D01A481B4B96
:106A40009847F7BDEFF31087012383F3108823687D
:106A500001332360164B1B681B6B002B19D0154BA1
:106A60001B78002B15D0FF20134B9847019013483B
:106A7000854203D92900124B98470500114B9847CE
:106A8000002806D06B461B790670437045800E4B7C
:106A900098472368013B236087F31088D1E7C046FD
:106AA000359B0200B40C00208A9B0200216101008A
:106AB000040C0020080C002039660100FFFF0000D4
:106AC000796201007161010041620100F7B50700C0
:106AD0000F2803D92848294B9847F7BDEFF31083B7
:106AE0000093012383F31088254D2B6801332B601D
:106AF000244B1B78834238D0234E33681B6B002B0A
:106B000033D00022214B22481A60224B98471D4B5C
:106B100001901F70204B9847041E26D0194B1878FF
:106B2000336867331B78834204D21C48134B984761
:106B300006230DE01A4B0321984733681A0073327D
:106B400012781B189B189C331B78012BF0D106334D
:106B500023706B469B88677063800A4B012219780B
:106B60000320104B9847104B98472B68013B2B6034
:106B7000009B83F31088B0E7459D0200216101006E
:106B8000B40C0020080C0020040C0020100C002085
:106B9000FFFF000039660100716101008A9D02005B
:106BA000A9620100C563010041620100F7B51E4EF4
:106BB0003468002C04D11D481D4B98472000FEBDB1
:106BC000206B0128FBD01B4B1B680193002B27D1A6
:106BD000EFF31087012282F31088174D2B689B1862
:106BE0002B6033681A63154B9847154B9847C4B20E
:106BF000002C0DD1134B0320984704000100124ACA
:106C00000320124B9847019A21000320104B98470C
:106C10002000104B98472B68013B2B6087F31088AE
:106C20003368186BCBE7C046040C0020409E02007E
:106C300021610100BC0C0020B40C00209D5D01000E
:106C4000115C010059640100849E0200216501006D
:106C50001D630100CD6A010010B5014B984710BDBE
:106C6000AD6B01000300012208334360C360036180
:106C70000023524282600360704700230361704723
:106C800043684B609A688A609A68516099600861AD
:106C9000036801330360704703000A6830B50833A6
:106CA000541C0BD103695A684A6091608B6059602B
:106CB000086103680133036030BD23005C68256808
:106CC000AA42FAD2EFE7426881680369916082685C
:106CD000416851605A68904201D182685A6000222E
:106CE00002611A68013A1A6018687047002382B07E
:106CF0000193064B1B68013301D072B6FEE772B6F2
:106D0000019B002BFCD002B07047C046F801002068
:106D10000B4A13681868203080F30988022080F33A
:106D20001488BFF36F8F3FBCAE4608BC04BC62B68C
:106D30001847C046C046C046C046C046C046C046CA
:106D4000B83B002010B58024031F64041C60043B82
:106D500019600349043B1960143B40381A6010BDA8
:106D6000ED6C010070470000FF2270B5124B120459
:106D7000196800240A431A60FF22196812060A43A0
:106D80001A600E4D0E4B2C6020001C600D4B984776
:106D9000FA210D4B890098470C4B013818600723E6
:106DA0002B600B4B1C600B4B98470B4B98470B4BC6
:106DB0009847200070BDC04620ED00E010E000E0E4
:106DC00018E000E029E70100BD58020014E000E0EF
:106DD000F8010020116D010049860100ED6C0100F1
:106DE0008022024B52051A607047C04604ED00E055
:106DF00072B6044A136801331360BFF34F8FBFF3B9
:106E00006F8F7047F8010020054A1368002B01D1ED
:106E100072B6FEE7013B1360002B00D162B67047EB
:106E2000F8010020EFF3108072B6704780F31088ED
:106E3000704700000000000000000000000000009B
:106E4000EFF309800E4B1A6820381060F0C04446FA
:106E50004D4656465F46F0C008B572B601F0F4FBE9
:106E600062B60CBC116808681030F0C8A046A9468C
:106E7000B246BB4680F309882038F0C81847C046A0
:106E8000B83B002010B5074B9847074B04009847C4
:106E9000002803D08022054B52051A602000044BC5
:106EA000984710BD256E01002D83010004ED00E020
:106EB0002D6E0100072370B50400184201D09C43D9
:106EC0000834154B984715490B68002B04D107224D
:106ED000134B083393430B601248134D0268134E53
:106EE000A318AB4212D89A4210D20D680360AD18B5
:106EF000002D0BD0220029009420B0470C4B98475E
:106F0000002D01D10B4B9847280070BD22000021B5
:106F1000E820B0470025F1E711830100D00C0020E4
:106F2000D40C0020B43B0020D72E0000E567010000
:106F3000998401006D2B0200002801D072B6FEE793
:106F400070470000024B03481B68C01A7047C046D8
:106F5000B43B0020D82E000010B50400034B984726
:106F6000A46B034B98476042604110BDF16D010076
:106F7000096E010070B51600026C0400856B002AD2
:106F80000AD106681000002E03D16068154B98479F
:106F900066600135A56370BD134B002E0CD180686F
:106FA0009847A368226C30009B186268A3609342E4
:106FB000EFD32368A360ECE7C0689847236CE268CE
:106FC0005B422168D218E2608A4202D26268D3181A
:106FD000E3600020022EDCD12B005A1E9341ED1AF3
:106FE000D7E7C046A18B0100112C0200F0B5846CDC
:106FF00087B005900291002C01D172B6FEE7A26B1A
:10700000E36B9A4201D372B6FEE7A26B002593426E
:1070100053D92300453303931B785BB201932B4B69
:1070200098472B4B98472B4E2B4D338803421BD050
:107030002A4B200098473388034215D0029B25260F
:10704000002B05D12000A847254B1E5C2036F6B248
:107050002000A847224B1F5C224B20009847390094
:10706000C2B2214B300098472000A8471C4E1D4B50
:10707000375C20009847C3B220000493A847335CD4
:107080000022022B02D0A26B0132D2B20499380046
:10709000164B9847164B029A05A920009847019B6A
:1070A000050001330CD1636A002B06D02000114B80
:1070B00024309847002800D00125280007B0F0BDF3
:1070C000019B039A01335BB21370F6E79D5D0100EB
:1070D000215C0100F0010020055C0100815C0100E1
:1070E000E8010020715C0100B9680100C56301007E
:1070F000756F0100D1880100030010B51A6C0800FB
:10710000002A0AD0D9685C688918D960A14201D3E5
:107110001968D960D968014B984710BD112C02003D
:10712000F8B5040026001C4F4536B84735786DB2D7
:10713000002D0EDCFF233370184EB047B8472700F0
:1071400044373D786DB2002D18DCFF233B70B0470B
:10715000F8BDA36C002B09D000212000104B9847EC
:10716000002801D00F4B9847013DE0E7636A002BF0
:10717000E0D020000C4B24309847F1E72369002B26
:10718000E3D02000084B10309847002801D0054B71
:107190009847013DD6E7C046F16D0100096E010038
:1071A000ED6F0100318A0100D188010070B5040043
:1071B0000D00002801D172B6FEE7164B9847216CEE
:1071C000E36B22684B43D0185B1AD318E3602300AB
:1071D0006060A2600020FF224433A0631A705A70DE
:1071E00085420ED12369834207D020000A4B10301C
:1071F0009847002801D0094B9847094B9847012030
:1072000070BD2000074D1030A84720002430A8474B
:10721000F3E7C046F16D0100D1880100E16D010086
:10722000096E0100656C0100F7B506000D0017003E
:10723000002801D172B6FEE708007043364B543087
:107240009847041E57D0002D51D120600121E663DC
:107250002564324B20009847230050331F700023D1
:107260002F4EA3642000B0472E4D2F4B285C98472B
:107270002E4B81B2200098472D4B200019882D4BB2
:1072800098472000B0472C4B2F5C200098472B4B91
:10729000C1B2380098472A4B98472A4B98472A4F43
:1072A0003B88034216D0294B200098473B88034275
:1072B00010D02000B0472F5C2000B0472B5C20008E
:1072C00001931D4B98471837FFB2C2B2019938009D
:1072D0001F4B98472000B047174B2D5C2000984764
:1072E0000022C1B21B4B280098472000FEBD0300BE
:1072F00054330360AAE7124B9847124B9847124B3E
:107300001B880342F1D0074B2100D85D124B40305F
:10731000C0B29847E9E7C046B56E0100AD71010003
:10732000055C0100E801002059640100915C010046
:10733000EE010020B15C0100715C0100F962010006
:107340009D5D0100215C0100F0010020815C0100D5
:10735000B9680100C5630100296A0100F0B587B072
:10736000041E01910392009301D172B6FEE7019BC6
:10737000002B00D0FDE0036C002B00D1F9E072B6C9
:10738000FEE7636A002B00D1E0E02000834B24304D
:107390009847DBE0039B002B27D1814B9847814B1B
:1073A0009847814B9847814D2B8803421BD0804BD7
:1073B000200098472B88034215D0009B7D4F7E4EBE
:1073C0004D25002B04D12000B847355C4835EDB27F
:1073D0002000B847794B365C200098473100C2B294
:1073E000774B280098470020B7E0002D02D104A871
:1073F000744B98476A4B9847734B9847B0472200A5
:10740000443213785BB2013301D1002313702200A0
:10741000453213785BB2013301D100231370604B06
:10742000984703A904A8694B9847694F002800D0E2
:107430009AE0B047A66BE56B594B9847AE4200D037
:107440008DE0584B9847584B9847584D2B8803422E
:107450001CD0574B200098472B88034216D0009B26
:10746000544E7525002B05D12000B047524B1D5CB2
:107470007035EDB22000B0474F4B1E5C4F4B2000E3
:1074800098473100C2B24E4B280098472000514B1C
:107490000399103098472000B8474F4B9847002871
:1074A00001D14E4B984701254D4EB047A36BE26B7F
:1074B000934203D3009B022B00D06BE7394B9847D4
:1074C000394B9847394E3B4D338803421BD0384BDC
:1074D000200098473388034215D0009B2526002BB7
:1074E00005D12000A847344B1E5C2036F6B22000A0
:1074F000A847314B1F5C314B200098473900C2B27E
:107500002F4B300098472000A8472B4E2B4B375C61
:1075100020009847C3B220000293A847335C0022A2
:10752000022B02D0A26B0132D2B2029938002D4B4D
:1075300098472D4B009A019920009847A36C002B87
:1075400000D11EE700992000284B9847002801D061
:10755000224B9847124B9847012007B0F0BD2000FE
:10756000B8471D4B98479EE72000B8471A4B9847ED
:1075700015E7009B022B02D1E36B012B0BD11C4BB7
:1075800098470025002800D08EE7039D002D00D1EC
:107590008AE772B6FEE772B6FEE7C046D188010000
:1075A000096E01009D5D0100215C0100F0010020D9
:1075B000815C0100055C0100E8010020715C0100B4
:1075C000B9680100A989010011830100C189010086
:1075D000217101001188010099840100E16D010011
:1075E000F16D0100C5630100756F0100ED6F0100D1
:1075F0007D8A010070B5020000210120064B9847EA
:10760000041E07D00021054D41600160C1600B00E0
:107610000A00A847200070BD297201005D730100B7
:10762000F0B585B00400029117000093002801D145
:1076300072B6FEE7029B002B3CD1036C002B39D0C5
:1076400072B6FEE7002F00D188E001253D60039867
:10765000444B9847280005B0F0BD636A002B7DD0ED
:107660002000414B2430984775E0019B453401339D
:107670005BB2237072E0200098473C4B00251B88CA
:107680000342E4D0009B3A4F3A4E5D35002B04D1C3
:107690002000B847355C5835EDB22000B847364B6E
:1076A000365C200098473100C2B2344B280098471E
:1076B0000025CCE7009B022B02D1E36B012B4FD1BD
:1076C0002F4B9847A26BE16B03902E4B8A4202D35B
:1076D000009A022ACFD1220045321278200052B2FD
:1076E00001929847214B1B88034216D0009B204EE5
:1076F0003525002B05D12000B0471E4B1D5C3035D1
:10770000EDB22000B0471B4B1E5C1B4B200098477E
:107710003100C2B2194B28009847154B20009847FA
:10772000144B1D5C144B20009847A26BC1B2013270
:10773000D2B22800144B9847144B009A02992000AB
:107740009847019B013390D1A36C002B85D0009901
:1077500020000F4B9847002800D073E7012576E7FB
:1077600072B6FEE72D6E0100D1880100F001002005
:10777000055C0100E8010020715C0100B9680100AE
:10778000256E0100815C0100C5630100756F010079
:10779000ED6F0100F0B585B004000F0002920028E3
:1077A00001D172B6FEE7036C002B01D072B6FEE782
:1077B0000368002B03D14368002B00D082E0424BCA
:1077C0009847A36BE16B0093009A03903F4B8A426A
:1077D0001ED3200098473E4B00251B8803425DD0F6
:1077E000029B3C4F3C4E5D35002B04D12000B84736
:1077F000355C5835EDB22000B847384B365C200078
:1078000098473100C2B2364B28009847002545E022
:10781000220045321278200052B2019298472C4B38
:107820001B88034216D0029B2A4E3525002B05D11A
:107830002000B047284B1D5C3035EDB22000B0472A
:10784000254B1E5C254B200098473100C2B2244BCB
:10785000280098471F4B200098471F4B1D5C1F4B6B
:1078600020009847A26BC1B201321E4BD2B2280051
:107870009847009B0133A363019B01331CD1A36C88
:10788000002B11D000212000174B9847002801D170
:10789000012503E0002FFBD001253D600398134B29
:1078A0009847280005B0F0BD636A002BF0D0200097
:1078B0000F4B24309847E9E7019B453401335BB215
:1078C0002370E5E772B6FEE7256E0100815C0100DA
:1078D000F0010020055C0100E8010020715C01005E
:1078E000B9680100C5630100ED6F01002D6E010054
:1078F000D188010010B50022014B984710BDC04649
:1079000095770100F0B587B0041E0291039201D172
:1079100072B6FEE7029B002B00D003E1036C002B44
:1079200000D1FFE072B6FEE7A26B013AD2B2D6E018
:10793000039B0193002B23D1804B9847804B9847A2
:10794000804B9847804D2B88034217D07F4B2000F7
:1079500098472B88034211D07D4F2000B8477D4EB9
:10796000355C2000B8477C4B365C2000984750358A
:10797000EDB2C2B231002800784B98470020C3E036
:10798000002D02D104A8764B98476C4B9847754B55
:107990009847B0472200443213785BB2013301D1DB
:1079A000002313702200453213785BB2013301D1FA
:1079B00000231370614B984703A904A86A4B9847AA
:1079C0006A4D6B4F6B4E002800D0A3E02000A84703
:1079D000002800D19AE05A4B98475A4B98475A4D85
:1079E0002B88034219D0594B200098472B8803421B
:1079F00013D0574B20009847564D2B5C200068331E
:107A0000DBB20193524B9847534B2D5C20009847B3
:107A10002900C2B2514B019898474D4B200098471E
:107A20004C4B1B5C022B0ED0454B9847454B98475F
:107A3000454B1B88034206D0414B98474E4B984715
:107A40004E4BC0B298472000039924304C4B9847C6
:107A50002000B847B047002801D14A4B984701257C
:107A6000494EB047A36B0193002B00D160E7029908
:107A70002000464B9847324B9847324B9847324D3F
:107A8000334E2B88034216D0304B200098472B886A
:107A9000034210D02000B0472E4F3D5C2000B0477D
:107AA0002D4B3F5C200098472835EDB2C2B239001B
:107AB00028002A4B98472000B047264D264B2F5CC4
:107AC00020009847C3B220000293B0472B5C022BE2
:107AD00000D029E71A4B9847274B9847C2B22C4B46
